:100000000C942A000C9434000C9434000C943400AA
:100010000C9434000C9434000C9434000C94340090
:100020000C9434000C9434000C9434000C94340080
:100030000C9434000C9434000C9434000C94340070
:100040000C9434000C9434000C9434000C94340060
:100050000C94340011241FBECFE5D8E0DEBFCDBF25
:100060000E9436000C9457000C9400008FEF8ABB5E
:1000700084B38E7F84BB85B3816085BB20E030E094
:100080009899FECF2830310511F420E030E04BB3D1
:1000900081E090E0022E02C0880F991F0A94E2F7D7
:1000A00084278BBB2F5F3F4F989BFECFE9CFF894FF
:0200B000FFCF80
:00000001FF
