:100000000C942A000C9447000C9447000C94470071
:100010000C9447000C9447000C9447000C94470044
:100020000C9447000C9447000C9447000C94470034
:100030000C9447000C9447000C9447000C94470024
:100040000C9447000C9447000C9447000C94470014
:100050000C94470011241FBECFE5D8E0DEBFCDBF12
:1000600010E0A0E6B0E0E4E2F9E002C005900D92F5
:10007000A03AB107D9F720E0A0EAB0E001C01D9294
:10008000A83BB207E1F70E942F040C9490040C9453
:100090000000FC0121E030E00AC0AC014E9FC0012D
:1000A0004F9F900D5E9F900D11242F5F3F4F462F65
:1000B00050E0241735078CF308951092B60080E0C5
:1000C00006C0E82FF0E0EA55FF4F10828F5F8C30BA
:1000D000C0F31092B5001092B4001092B3001092C9
:1000E000B2001092A5001092A4001092A3001092EA
:1000F000A2001092A1001092A00081E00E94B20321
:100100008FE097E20197F1F700C000000895DF92B9
:10011000EF92FF920F931F93CF93DF939C0199234C
:1001200024F422273327281B390BD22EE32E9923C0
:100130004CF48DE20E94F6038FE097E20197F1F70D
:1001400000C000008D2D9E2D00E006C00F5F6AE00C
:1001500070E00E946804CB019C01275F3F4F233170
:100160003105A0F7CD2DDE2D10E025C0F02EF11ABF
:10017000CB30D10554F06F2D8AE090E00E94490009
:10018000BC01CE010E946804EB018C2F805D0E94AF
:10019000F6038FE097E20197F1F700C000006F2DA2
:1001A0008AE090E00E944900BC018D2D9E2D0E94A6
:1001B0006804EC011F5F0117C8F69FEF20E782E09B
:1001C000915020408040E1F700C00000DF91CF91C6
:1001D0001F910F91FF90EF90DF9008958091B300F1
:1001E0009091A6009D3261F42091A4003091A50069
:1001F0003195219531093093A5002093A4008F5F9C
:1002000090E0FC01E955FF4F20812D3259F42091F7
:10021000A2003091A3003195219531093093A300BC
:100220002093A200FC01EA55FF4F80818B3249F0F8
:1002300018F48A3221F145C08D3291F08F3299F154
:1002400040C02091A4003091A5008091A20090911F
:10025000A300820F931F9093A1008093A00031C050
:100260008091A4009091A5002091A2003091A3005C
:10027000821B930B9093A1008093A00022C0409119
:10028000A4005091A5002091A2003091A300429FAC
:10029000C001439F900D529F900D11249093A10097
:1002A0008093A0000EC08091A4009091A500609161
:1002B000A2007091A3000E9468047093A100609353
:1002C000A0008091A0009091A1000E948700089555
:1002D000EF92FF920F931F93CF93DF938C01C1E0B6
:1002E00034C0F80190819D3219F09FEF9C0F01C03E
:1002F0009C2F682F6C1BC8130FC0F801E90FF11D6C
:1003000090812091A4003091A500290F311D3093D8
:10031000A5002093A4001DC0F801E90FF11DD081B4
:100320008AE090E00E9449009C01D29FC001D39FC7
:10033000900D11242091A4003091A500820F931FED
:100340009093A5008093A400CF5F8091B3008C1799
:1003500040F6C1E0C80FE090B200D82FDE0DF801E2
:1003600090819D3219F4C2E0C80FDF5FF801EC0FF5
:10037000F11D80818D32A9F5CF5FDF5F32C091E042
:10038000E91290E081E0CD1380E0892B79F0F8014B
:10039000EC0FF11D20818091A2009091A300820FAB
:1003A000911D9093A3008093A2001DC0F801EC0F53
:1003B000F11DF0806D2F6C1B8AE090E00E944900D7
:1003C0009C01F29EC001F39E900D11242091A20089
:1003D0003091A300820F931F9093A3008093A200FB
:1003E000CF5FDC1760F66091A2007091A30080914E
:1003F000A4009091A5000E94EE00DF91CF911F9183
:100400000F91FF90EF9008955EC02130D1F48D33AD
:1004100021F08A3211F08F32A1F480EC0E94B203F5
:1004200084E790E00E9402042FEF80E792E02150E1
:1004300080409040E1F700C0000081E00E94B203DC
:1004400008959091B70091111EC080539091B4000F
:10045000E92FF0E0EA55FF4F80838091B5008823B3
:1004600019F0813039F00BC08091B3008F5F809319
:10047000B30005C08091B2008F5F8093B2009F5F90
:100480009093B4000895913079F4223010F0909355
:10049000B5009091B400E92FF0E0EA55FF4F80835A
:1004A0009F5F9093B4000895923069F48091B400F6
:1004B0008F5F8093B40080EC0E94B20386EA90E0E4
:1004C0000E94680108952091B60021119ECF0895E1
:1004D0008FEF81BB82BB80EF81BB0895E0917200FA
:1004E000F091730080818F7E8083E0917000F091A5
:1004F0007100808180FD0AC01092B7008091B60023
:100500008F5F8093B600809160000895808181FDA7
:100510000AC01092B7008091B6008F5F8093B6003A
:10052000809164000895808182FD0AC01092B70016
:100530008091B6008F5F8093B60080916800089527
:10054000808183FD0BC083E08093B7008091B6006B
:100550008F5F8093B60080916C000895E0917200E7
:10056000F0917300808180618083E0917200F0914E
:10057000730080818F7D8083E0917000F091710025
:10058000808180FD0AC01092B7008091B6008F5F15
:100590008093B600809161000895808181FD0AC03A
:1005A0001092B7008091B6008F5F8093B600809163
:1005B00065000895808182FD0AC01092B700809185
:1005C000B6008F5F8093B6008091690008958081A6
:1005D00083FD0AC01092B7008091B6008F5F8093B0
:1005E000B60080916D000895E0917200F091730063
:1005F000808180628083E0917200F091730080813D
:100600008F7B8083E0917000F0917100808180FD8C
:100610000AC01092B7008091B6008F5F8093B60039
:10062000809162000895808181FD0AC01092B70018
:100630008091B6008F5F8093B60080916600089528
:10064000808182FD0AC01092B7008091B6008F5F52
:100650008093B60080916A000895808183FD0BC06D
:1006600082E08093B7008091B6008F5F8093B600E0
:1006700080916E000895E0917200F0917300808186
:1006800080648083E0917200F091730080818F77A5
:100690008083E0917000F0917100808180FD0BC03B
:1006A00081E08093B7008091B6008F5F8093B600A1
:1006B000809163000895808181FD0BC081E080936B
:1006C000B7008091B6008F5F8093B600809167007D
:1006D0000895808182FD0BC081E08093B7008091F6
:1006E000B6008F5F8093B60080916B000895808183
:1006F00083FD0BC081E08093B7008091B6008F5FCF
:100700008093B60080916F000895E0917200F0919F
:100710007300808180688083E1CE88B3886088BB65
:100720008FE19EE40197F1F700C0000088B3877F56
:1007300088BB08951BBA8EE087BB1ABA88B38D7F39
:1007400088BB88B3846088BB88B3886088BBD8992D
:10075000FECF88B3877F88BB8FEF8ABB88B38B7F40
:1007600088BB0895CF93C82F0E949A03CBBB88B350
:100770008D7F88BB0E948D03CF9108952FE788E37A
:1007800091E0215080409040E1F700C000008EE0F1
:1007900087BB8FEF8ABB88B3817F88BB2FE788E355
:1007A00091E0215080409040E1F700C000000E949D
:1007B0009A0381E00E94B2030E949A0382E00E94A1
:1007C000B2030E949A0386E00E94B2030E949A0339
:1007D00088E30E94B2030E949A038FE00E94B20352
:1007E0000E949A0380E80E94B2030895CF93C82F15
:1007F0000E949A03CBBB88B3826088BB0E948D03A2
:10080000CF910895EF92FF920F931F93CF937C01A6
:100810000E949A03C0E016C0C03159F488B38D7F9E
:1008200088BB80EC0E94B2030E948D0388B3826073
:1008300088BBF80180818BBB88B3826088BB0E9433
:100840008D03CF5F87010C0F111DF801808181118D
:10085000E3CFCF911F910F91FF90EF9008950E94E9
:10086000BE038FE19EE40197F1F700C0000081E82C
:1008700090E00E9402049FEF2EE984E29150204014
:100880008040E1F700C0000081E00E94B2030E94B6
:1008900068028FE19EE40197F1F700C000000E941A
:1008A0005D000E946E02C82F8F3619F40E945D0011
:1008B000F8CF0E94F6039FE72AE186E0915020409E
:1008C0008040E1F700C000008C2F0E940402E9CFB5
:1008D00097FB072E16F4009407D077FD09D00E94ED
:1008E0007C0407FC05D03EF4909581959F4F0895B8
:1008F000709561957F4F0895AA1BBB1B51E107C0FE
:10090000AA1FBB1FA617B70710F0A61BB70B881F9F
:10091000991F5A95A9F780959095BC01CD0108952E
:04092000F894FFCF79
:100924003738392F3435362A3132332D6F303D2B59
:10093400300032004572726F722052652D747279E4
:100944000077656C636F6D6520746F204E6162691A
:100954006C20202063616C63756C61746F7200009D
:00000001FF
